:07000300010E00020800AA33
:0D0314007FA77EAB7D10DDFEDEFADFF60078
:0103210022B9
:10030100758900438901758CFF758AA4D2A9D28CA5
:03031100D2AF2246
:1002780085080B85090CC291D292D293C294AF0C17
:080288008F0A8F13750F0C2281
:10000E0085080B85090CD291C292C293D294AF0C83
:05001E008F0A8F132280
:09033B00C291D292D293C2942225
:1002D800D291C292C293D29485080B85090CAF0CB7
:0502E8008F0A8F1322B4
:10029000D291C292C293D29485080B85090CAF0CFF
:0802A0008F0A8F13750F0E2267
:1002A800D291C292C293D29485080B85090CAF0CE7
:0802B8008F0A8F13750F092254
:10023200D291C292C293D294E5092414F512E43504
:1002420008F51185080B85090C85120A850C1375B2
:030252000F0A226E
:10025500E5092414F512E43508F51185080B85091F
:100265000CD291C292C293D294850C0A8512137551
:030275000F0D2248
:1001E000E5092414F512E43508F51185080B850995
:1001F0000CD291C292C293D294E5122405F50AE57D
:090200000C24FBF513750F0E220E
:10020900E5092414F512E43508F51185080B85096B
:100219000CD291C292C293D294E50C24FBF50AE563
:09022900122405F513750F0922DA
:0D03220074F62509F50974FF3508F5082269
:0C032F00740A2509F509E43508F50822D8
:03000B0002019857
:10019800C0E0C0D0C28C758CFF758AA4050DE50D32
:1001A800B4FF07C2A2C2A1750D00E50AB50D02D2BF
:1001B800A1E513B50D02D2A2E50ED3950F5004D2D6
:1001C800A08002C2A0050EE50EC394C84003750EB8
:0801D80000D28CD0D0D0E0323F
:1000B20030900F1201E012031412020912031412FB
:1000C200027830950930970630960312027820950F
:1000D2000930970620960312027830951520971260
:1000E20020960F12020920950930970620960312D6
:1000F200027820951520971230960F1201E0209574
:10010200093097062096031202783095153097121F
:1001120020960F1202552095093097062096031259
:10012200027820951530971230960F1202322095E0
:0B013200092097062096031202782295
:1002C000E4F587759850438920758BFD758DFDC2C7
:0802D000ABD28ED2AFD2AC22FA
:030023000202EDE9
:1002ED0012033B309808851099859910C298309962
:0402FD0002C299326E
:10013D001203011202C0E510700512033B80F7E5B2
:10014D0010B401051202D880EDE510B402051200BD
:10015D000E80E3E510B40305750F0880D9E510B4E2
:10016D000405750F0E80CFE510B40508750F0B1241
:10017D00032280C2E510B40608750F0B12032F8001
:0B018D00B5E510B407B01200B280AB63
:03000000020026D5
:0C002600787FE4F6D8FD75811302006DB0
:1000320002013DE493A3F8E493A34003F68001F2A6
:1000420008DFF48029E493A3F85407240CC8C333CF
:10005200C4540F4420C8834004F456800146F6DF9E
:10006200E4800B0102040810204080900003E47E2B
:10007200019360BCA3FF543F30E509541FFEE49393
:10008200A360010ECF54C025E060A840B8E493A35A
:10009200FAE493A3F8E493A3C8C582C8CAC583CA85
:1000A200F0A3C8C582C8CAC583CADFE9DEE780BE3D
:01000A0000F5
:00000001FF
