:020000040800F2
:100000008006002089010008BB030008B303000834
:10001000B7030008430200089B0D00080000000021
:10002000000000000000000000000000590500086A
:1000300047020008000000004104000845060008CF
:10004000A3010008A3010008A3010008A301000800
:10005000A3010008A3010008A3010008A3010008F0
:10006000A3010008A3010008A3010008A3010008E0
:10007000A3010008A3010008A3010008A3010008D0
:10008000A3010008A3010008A3010008A3010008C0
:10009000A3010008A3010008A3010008A3010008B0
:1000A000A3010008A3010008A3010008A3010008A0
:1000B000A3010008A301000849070008A3010008E4
:1000C000A3010008A3010008A3010008A301000880
:1000D000A3010008E50B0008A3010008A301000824
:1000E00049020008A3010008A301000800F002F87B
:1000F00000F03AF80AA090E8000C82448344AAF188
:100100000107DA4501D100F02FF8AFF2090EBAE885
:100110000F0013F0010F18BFFB1A43F0010318473B
:10012000A00F0000C00F0000103A24BF78C878C1AB
:10013000FAD8520724BF30C830C144BF04680C60ED
:10014000704700000023002400250026103A28BF35
:1001500078C1FBD8520728BF30C148BF0B60704739
:100160001FB51FBD10B510BD00F031F81146FFF7E7
:10017000F7FF00F014FE00F04FF803B4FFF7F2FFB2
:1001800003BC00F057F800000948804709480047C1
:10019000FEE7FEE7FEE7FEE7FEE7FEE7FEE7FEE737
:1001A000FEE7FEE704480549054A064B7047000094
:1001B00049060008ED0000088000002080060020AD
:1001C000800200208002002070477047704775460B
:1001D00000F02CF8AE4605006946534620F00700B3
:1001E000854618B020B5FFF7DDFFBDE820404FF091
:1001F00000064FF000074FF000084FF0000B21F011
:100200000701AC46ACE8C009ACE8C009ACE8C009DD
:10021000ACE8C0098D46704710B50446AFF30080C6
:100220002046BDE81040FFF7A8BF00000048704717
:100230002000002001491820ABBEFEE72600020086
:10024000704700BFFEE7704710B54FF4804000F0E4
:100250000FF8012808D105480088401C0349088090
:100260004FF4804000F004F810BD0000180000209A
:10027000014600200022074B1B6803EA0102054BE0
:1002800014331B680B4013B10AB1012000E00020B9
:1002900070470000000401402DE9F04102460025AE
:1002A0000026002000230024002791F803C00CF052
:1002B0000F0591F803C00CF0100CBCF1000F03D037
:1002C00091F802C04CEA050591F800C0BCF1000F9E
:1002D00031D0146800202BE04FF0010C0CFA00F331
:1002E000B1F800C00CEA03069E4220D183004FF013
:1002F0000F0C0CFA03F7BC4305FA03FC4CEA0404A8
:1003000091F803C0BCF1280F06D14FF0010C0CFA94
:1003100000FCC2F814C00AE091F803C0BCF1480F19
:1003200005D14FF0010C0CFA00FCC2F810C0401CC3
:100330000828D1D31460B1F800C0BCF1FF0F34DD40
:10034000546800202EE000F1080C4FF0010808FA74
:100350000CF3B1F800C00CEA03069E4221D18300E1
:100360004FF00F0C0CFA03F7BC4305FA03FC4CEA00
:10037000040491F803C0BCF1280F05D100F1080C6A
:1003800008FA0CF8C2F8148091F803C0BCF1480FC9
:1003900007D100F1080C4FF0010808FA0CF8C2F878
:1003A0001080401C0828CED35460BDE8F081416124
:1003B000704700BFFEE700BFFEE7704770B5002141
:1003C00000230F22C47804B3154C246804F4E064BD
:1003D000C4F5E064210AC1F10403CA40447804FA78
:1003E00003F184781440214309010E4C0678A1558D
:1003F000047804F01F050124AC4005786D11AD00B0
:1004000005F1E025C5F8004109E0047804F01F0576
:100410000124AC40044D0678761145F8264070BDA5
:100420000CED00E000E400E080E100E0024901435F
:10043000024A1160704700000000FA050CED00E070
:100440007047000029B1064AD2690243044BDA61C1
:1004500004E0034AD2698243014BDA61704700002D
:100460000010024029B1064A92690243044B9A6186
:1004700004E0034A92698243014B9A61704700008D
:100480000010024030B500210022002400232D4D31
:100490006D6805F00C0121B1042905D0082923D18C
:1004A00005E0294D056022E0274D05601FE0254D40
:1004B0006D6805F47012234D6D6805F480340225D3
:1004C00005EB92421CB9214D554305600BE01D4DD3
:1004D0006D6805F400351DB11C4D5543056002E003
:1004E000194D5543056002E0174D056000BF00BF80
:1004F000144D6D6805F0F0010909154D6B5C056838
:10050000DD4045600F4D6D6805F4E061090A104D4E
:100510006B5C4568DD4085600A4D6D6805F460518F
:10052000C90A0B4D6B5C4568DD40C560054D6D68C3
:1005300005F44041890B074D6B5CC568B5FBF3F5CD
:10054000056130BD0010024000127A0000093D0034
:100550000000002010000020704710B500F002F8E5
:1005600010BD00000CB500200190009033480068D9
:1005700040F480303149086000BF3048006800F422
:10058000003000900198401C0190009818B9019823
:10059000B0F5A06FF1D12948006800F4003010B127
:1005A0000120009001E0002000900098012843D134
:1005B0002348006840F010002149086008460068A0
:1005C00020F0030008600846006840F00200086060
:1005D0001A4840681949486008464068486008461B
:1005E000406840F4806048600846406820F47C1011
:1005F00048600846406840F4E810486008460068D3
:1006000040F08070086000BF0C48006800F0007087
:100610000028F9D00948406820F0030007494860E5
:100620000846406840F00200486000BF0348406848
:1006300000F00C000828F9D10CBD000000100240A9
:10064000002002407047000010B51348006840F0D9
:1006500001001149086008464068104908400E49E9
:100660004860084600680E4908400B490860084683
:10067000006820F4802008600846406820F4FE00EE
:1006800048604FF41F008860FFF767FF4FF000607D
:100690000449086010BD0000001002400000FFF88F
:1006A000FFFFF6FE08ED00E000B589B00121084625
:1006B000FFF7C8FE01210420FFF7D4FE18208DF8B3
:1006C00023000320ADF820008DF8220008A91D4862
:1006D000FFF7E2FD4FF0804000F078F80020ADF821
:1006E0001A00ADF8160044F61F60ADF81800472058
:1006F000ADF8140000208DF81C0005A94FF08040D3
:1007000000F0D8F901A800F0C2F96020ADF80400AB
:100710000020ADF80C000120ADF806000020ADF877
:100720000A0001A94FF0804000F056F801A94FF0EF
:10073000804000F0A7F80121880700F021F809B0F7
:1007400000BD00000008014010B50121074800F07D
:1007500023F8012808D10121044800F00EF80448CC
:100760000068401C0249086010BD000000080040FD
:1007700014000020CA4302827047CA4302827047B5
:1007800021B1028842F00102028004E002884FF6A3
:10079000FE731A400280704730B5024600200023E5
:1007A0000024158A05EA0103958905EA010413B1BD
:1007B0000CB1012000E0002030BD1AB183890B4349
:1007C000838102E083898B438381704701894FF6DF
:1007D000F87211400181704770B500240022002397
:1007E000058C4FF6FE7635400584028C8388048B99
:1007F0004FF68F752C40B51E2C400D882C43751E6E
:100800002A400D892A434D882A43144DA8420BD013
:10081000134DA84208D0134DA84205D0124DA8424E
:1008200002D0124DA84213D14FF6F7752A404D89D8
:100830002A434FF6FB752A408D882A434FF6FF6501
:100840002B404FF6FF552B408D892B43CD892B43F1
:1008500083800483CD888586028470BD002C01408E
:100860000034014000400140004401400048014084
:100870000A460021018B4FF6F7731940114301839B
:100880007047000070B5002400220023058C4FF64D
:10089000EF7635400584028C8388048B48F6FF751B
:1008A0002C404FF6FF452C400D884FF6FF7606EAA8
:1008B00005252C434FF6DF752A400D8906EA0515FC
:1008C0002A434D8806EA05152A43154DA84202D051
:1008D000144DA8421DD14FF67F752A404D894FF621
:1008E000FF7606EA05152A434FF6BF752A408D8824
:1008F00006EA05152A434FF6FF352B404FF2FF75E8
:100900002B408D8906EA85052B43CD8906EA8505AE
:100910002B4383800483CD880587028470BD00004B
:10092000002C0140003401400A460021018B4FF2A7
:10093000FF7319404FF6FF7303EA02231943018343
:100940007047000070B5002400220023058C4FF68C
:10095000FF6635400584028C8388848B4FF68F7543
:100960002C404FF6FC752C400D882C434FF6FF555C
:100970002A400D894FF6FF7606EA05252A434D8861
:1009800006EA05252A43154DA84202D0144DA84277
:100990001DD14FF2FF752A404D894FF6FF7606EACA
:1009A00005252A434FF6FF352A408D8806EA05259E
:1009B0002A434EF6FF752B404DF6FF752B408D896F
:1009C00006EA05152B43CD8906EA05152B438380DE
:1009D0008483CD888587028470BD0000002C01408F
:1009E000003401400A460021818B4FF6F77319400D
:1009F000114381837047000070B50022002300245A
:100A0000058C4EF6FF7635400584038C8488828BF6
:100A100048F6FF752A404FF6FF452A400D884FF6ED
:100A2000FF7606EA05252A434DF6FF752B400D8912
:100A300006EA05352B434D8806EA05352B430B4D59
:100A4000A84202D00A4DA84208D14BF6FF752C40AF
:100A50008D894FF6FF7606EA85152C4384808283C4
:100A6000CD88A0F84050038470BD0000002C0140E8
:100A7000003401400A460021818B4FF2FF73194078
:100A80004FF6FF7303EA0223194381837047002165
:100A9000018041808180C180018141818181C1814A
:100AA0007047818670470187704781877047A0F83B
:100AB00040107047002202881D4B98420ED01D4BFB
:100AC00098420BD0B0F1804F08D01B4B984205D014
:100AD0001A4B984202D01A4B984204D14FF68F73AA
:100AE0001A404B881A43174B984207D0164B98422E
:100AF00004D04FF6FF431A40CB881A4302808B88FC
:100B000083850B8803850A4B98420BD0094B98428A
:100B100008D00E4B984205D00D4B984202D00D4B99
:100B2000984201D10B7A038601238382704700002B
:100B3000002C014000340140000400400008004047
:100B4000000C004000100040001400400040014034
:100B500000440140004801401FB501210420FFF777
:100B600071FC1F48FFF732FE0020ADF80A00ADF817
:100B700006004CF24F30ADF808004720ADF80400F5
:100B800000208DF80C0001A91548FFF793FF012103
:100B90001348FFF7EFFD012211461148FFF70DFE44
:100BA00001210F48FFF7E9FD012211460C48FFF72C
:100BB00004FE4FF4A060FFF739FC1E208DF8000002
:100BC00001208DF803008DF8010000208DF802004F
:100BD0006846FFF7F3FB00210148FFF7D1FD1FBD79
:100BE0000008004010B540F22551094800F031F8E6
:100BF00001280CD1064800F0CBF806490870012006
:100C00000549087040F22551014800F007F810BD71
:100C1000003801401A0000201B00002010B50022FF
:100C2000002340F66A14A14200D100BF0A12012439
:100C30009440A3B2DC43048010BD21B1828942F408
:100C40000052828104E082894DF6FF731A4082814E
:100C5000704702460020B1F5007F00D100BF138825
:100C60000B400BB1012000E000207047F0B50346B7
:100C7000002400260025002040F66A17B94200D162
:100C800000BF1846C1F3421401F01F06012707FAFE
:100C900006F5012C01D10C3004E0022C01D11030FA
:100CA00000E014301AB107682F43076002E00768BC
:100CB000AF430760F0BD00002DE9F04786B0054660
:100CC0000E460024A24600BFA1460027B08900B10D
:100CD00000BF2F462C8A4CF6FF700440F088044376
:100CE0002C82AC894EF6F3100440B0883189084359
:100CF000718908430443AC81AC8A4FF6FF4004403D
:100D0000B0890443AC8201A8FFF7BCFB1F488742AF
:100D100002D1DDF810A001E0DDF80CA0A88900F4F4
:100D2000004040B10AEBCA0000EB0A1031684900EC
:100D3000B0FBF1F807E00AEBCA0000EB0A103168DB
:100D40008900B0FBF1F86420B8FBF0F00401200941
:100D5000642101FB1089A88900F4004040B13220D1
:100D600000EBC900B0FBF1F000F00700044308E01D
:100D7000322000EB09106421B0FBF1F000F00F000D
:100D800004432C8106B0BDE8F08700000038014024
:100D900001468888C0F30800704700BFFEE700F0F6
:100DA00013F800F02DF800F045F800F0E9F8FFF72F
:100DB000D3FE00F041F900F06DF9FFF775FC01E09A
:100DC00000F0A6F8FCE7000008B501210820FFF7B5
:100DD00049FB4FF47050ADF8000010208DF803006F
:100DE00003208DF8020069460448FFF755FA4FF4D6
:100DF00070510248FFF7DBFA08BD0000000C01400B
:100E000008B501210420FFF72DFB3C20ADF80000C0
:100E100010208DF8030003208DF802006946044875
:100E2000FFF73AFA3C210248FFF7C1FA08BD00007B
:100E30000008014000B589B001210220FFF702FB44
:100E400001210820FFF70EFB01210420FFF70AFB18
:100E5000C020ADF8200018208DF8230003208DF865
:100E6000220008A92748FFF717FA0320ADF8200051
:100E700018208DF8230003208DF8220008A92248AD
:100E8000FFF70AFAC720ADF818002320ADF81400C8
:100E90000020ADF81A00ADF8160005A91B48FFF7B1
:100EA00009FE6020ADF804000120ADF80600002026
:100EB000ADF80C00ADF80A0001A91448FFF78CFC4E
:100EC00001A91248FFF7DEFC01A91048FFF73AFD1F
:100ED00001A90E48FFF790FD08210C48FFF7C8FC58
:100EE00008210A48FFF720FD08210848FFF77AFD8E
:100EF00008210648FFF7BEFD01210448FFF740FC2A
:100F000009B000BD00080140000C01400004004091
:100F100010B591211548FFF7C4FD8C211348FFF748
:100F2000C2FD8C211148FFF7C0FD91210F48FFF74A
:100F3000BEFD01200E49086000200E49C1F88C0159
:100F400001200B49083108600020091D08600120BC
:100F5000094908600020091D08600120091D08607A
:100F600000200649C1F8B40110BD00000004004093
:100F70008801214200002142A881214200802142B3
:100F800000B587B001218803FFF76CFA0121042026
:100F9000FFF768FA18208DF81B004FF40070ADF8C9
:100FA000180003208DF81A0006A92148FFF774F9EC
:100FB00048208DF81B004FF48060ADF81800032026
:100FC0008DF81A0006A91A48FFF766F94FF4165073
:100FD00002900020ADF814000C20ADF812000020A3
:100FE000ADF81000ADF80E00ADF80C0002A91148E4
:100FF000FFF762FE012240F225510E48FFF736FE50
:101000004FF4A060FFF712FA25208DF804000120AC
:101010008DF807008DF805008DF8060001A8FFF790
:10102000CDF901210348FFF708FE07B000BD00001D
:10103000000801400038014008B501210820FFF7F1
:1010400011FA10208DF803000001ADF80000032014
:101050008DF8020069460E48FFF71EF94FF48071C3
:101060000B48FFF7A4F94FF40070ADF800002820FA
:101070008DF8030003208DF8020069460448FFF74D
:101080000BF94FF400710248FFF791F908BD000019
:10109000000C014008B501211020FFF7E3F90720FB
:1010A000ADF8000004208DF8030003208DF8020045
:1010B00069460248FFF7F0F808BD00000010014043
:1010C000E0100008000000202000000028010008B7
:1010D0000011000820000020600600004401000804
:1010E00000000000010203040102030406070809CE
:1010F00002040608000000000000000000000000DC
:04000005080000ED02
:00000001FF
