:08045200610D0A00620D0A00B1
:1003DC0075985053890F438920AB07AA06E4F9F8A6
:1003EC007F807E70FDFC120398EFF404F58D858DF3
:0803FC008BC2ABD2ACD28E2201
:08044A008F993099FDC299223F
:1004200012020AFF600C12044A740129F9E43AFA34
:0304300080EE2239
:0B043F00EF1FAC0670011E4C70F6228F
:05045A00007F50DFFEF1
:01045F00227A
:1002FF007508037509E8E4F50AF50BAC08AD09E4D8
:10030F001201877BCD7ACC79CC783D120003C004E3
:10031F00C005C006C007AC0AAD0BE4120187A804E4
:10032F00A905AA06AB07D007D006D005D004120145
:10033F0009500FB2A512045A050BE50B70BD050A43
:02034F0080B973
:010351002289
:100404007B077A00C2A5EB1BAE0270011A4E600B8B
:0B041400B2A57FE87E0312043F80EBDE
:01041F0022BA
:100352007FE87E0312043FD2AF7F807E251203DC4A
:1003620020B11830B1FD7F0A7E0012043F1202FF55
:100372007BFF7A04795212042080E520B0E230B08B
:10038200FD7F0A7E0012043F1204047BFF7A047987
:060392005612042080CA8F
:10000300EC4D6011E8497017ED33EC3304600DE4F7
:10001300FCFFFEFD22E933E8330470F80201F51218
:1000230001C058046009E4CC248150062850090219
:1000330001FF2840030201FCC0E0EB4A7044B98091
:1000430006D0E0FB0201EBEF4E701CBD8008EBFF16
:10005300EAFEE9FD80EBE98DF0A4FEE5F00200EC99
:10006300E9CDF9EAFEEBFFEF89F0A4FCE5F0CE89D8
:10007300F0A42EFFE435F0CD89F0A42DFEE435F095
:100083008067EF4E7005BD80D780C3EF8BF0A4ACC3
:10009300F0EE8BF0A42CFCE435F0F8EF8AF0A42CFE
:1000A300E5F038FCE433CB8DF0A42CFCE5F03BF811
:1000B300EE8AF0A42CFCE5F038F8E433CF89F0A401
:1000C3002CFCE5F038CF3400CE89F0A42FFFE5F007
:1000D3003EFEE433C98DF0A42EFEE5F039CD8AF05F
:1000E300A42FFFE5F03EFEE43DFD33D0E0FB5007D7
:1000F3000BBB000F0201FFEC2CFCEF33FFEE33FED2
:06010300ED33FD0201D7FF
:1001090074F8CC6480CCC86480C8F58204604FC39D
:10011900EB9FF5F0EA9E42F0E99D42F0E89C45F03C
:10012900603C501DE5825FFFE582D313CB5BCBF4C6
:100139002B5582FB50280ABA002409B900200880EF
:100149001DE5825BFBE582D313CF5FCFF4C3132F89
:100159005582FF50090EBE00050DBD00010CC3EB11
:100169009FF5F0EA9E42F0E99D42F0E89C45F06077
:0901790007CC4820E701B3EC2299
:1001820075F020800E75F010800575F0087D007EF8
:10019200007F003392D530D503120223EC33401096
:1001A200EF33FFEE33FEED33FDEC33FCD5F0ED2201
:0E01B200E5F0247EA2D513CC92E7CDCEFF223D
:1001C000E9D2E7C933E833F892D5EDD2E7CD33EC85
:0701D00033FC5002B2D522FE
:1001D700EC30E7100FBF000C0EBE00080DBD000489
:1001E7000BEB6014A2D5EB13FCED92E7FD2274FF35
:1001F700FCFDFEFF22E480F8A2D574FF13FC7D808E
:03020700E480EFA1
:03000000020433C4
:0C043300787FE4F6D8FD75810D020352BD
:10020A00BB010689828A83E0225002E722BBFE02F2
:09021A00E32289828A83E4932225
:10039800C2D5E830E70FB2D5E4C39BFBE49AFAE490
:1003A80099F9E498F8EC30E717B2D51203CE1202A7
:1003B8006DE4C39BFBE49AFAE499F9E498F88003A6
:1003C80012026D30D50DE4C39FFFE49EFEE49DFD4F
:0403D800E49CFC2283
:0E022300C3E49FFFE49EFEE49DFDE49CFC22EC
:1002310075F008758200EF2FFFEE33FECD33CDCC84
:1002410033CCC58233C5829BED9AEC99E582984007
:100251000CF582EE9BFEED9AFDEC99FC0FD5F0D6E4
:10026100E4CEFBE4CDFAE4CCF9A88222B800C1B90E
:100271000059BA002DEC8BF084CFCECDFCE5F0CB4C
:10028100F97818EF2FFFEE33FEED33FDEC33FCEB85
:1002910033FB10D703994004EB99FB0FD8E5E4F940
:1002A100FA227818EF2FFFEE33FEED33FDEC33FC2D
:1002B100C933C910D7059BE99A4007EC9BFCE99A21
:1002C100F90FD8E0E4C9FAE4CCFB2275F010EF2F66
:1002D100FFEE33FEED33FDCC33CCC833C810D70766
:1002E1009BEC9AE899400AED9BFDEC9AFCE899F8A1
:0E02F1000FD5F0DAE4CDFBE4CCFAE4C8F92234
:00000001FF
