:09025F00010900010A0001080F69
:0D024600007F087E017DF3DDFEDEFCDFFAA7
:010253002288
:1001E000E4F587759850438920758BFD758DFDC2A8
:0801F000ABD28ED2AFD2AC22DB
:1001C200D3EF9400EE940040147D727C00ED1D701C
:0D01D200011CED4C70F7EF1F70E61E80E37E
:0101DF0022FD
:1001F800438901758AA4758CFFC28DD2AFD2A9D26A
:020208008C2246
:06025400750C50750B5003
:05025A00D291C29222C6
:05000300C293D294221B
:05028400C291D292229C
:05028900D293C2942293
:05028E00C291C29222A2
:05029300C293C2942299
:0902690075080F12025402000393
:0F020A0075080F750C50750B5012028E0202937F
:0F02190075080F750C50750B5012028402028984
:0902720075081112025402000388
:09027B0075080D12025402000383
:0F02280075080B750C50750B2812025A02000353
:0F02370075080E750C28750B5012025A02000341
:1000B200309509309606309703120269209509306F
:1000C2009606209703120269309515209612209702
:1000D2000F12023720950930960620970312026903
:1000E20020951520961230970F120228209509307C
:1000F20096062097031202693095153096122097C2
:100102000F12027B2095093096062097031202698E
:1001120020951530961230970F1202722095092001
:09012200960620970312026922DF
:100182001201E01201F8E50DB40103120269E50D56
:10019200B40203120219E50DB4030312020AE50DBB
:1001A200B40403120228E50DB40503120237E50D6B
:1001B200B4060312027BE50DB407CB12027280C6AD
:03000B0002012BC4
:10012B00C0E0C0F0C0D0758AA4758CFF750B5A75F2
:10013B000C5A0509E509C394644003750900E509E8
:10014B00C3950B5004D2A18002C2A1E509C3950C43
:10015B005004D2A28002C2A2050AE50A75F0C88437
:10016B0085F00AE50AC395085004D2A08002C2A00C
:07017B00D0D0D0F0D0E0323B
:0300230002000ECA
:10000E0030980B12020A85990D850D99C298309978
:04001E0002C299324F
:03000000020026D5
:0C002600787FE4F6D8FD75810D02006DB6
:10003200020182E493A3F8E493A34003F68001F261
:1000420008DFF48029E493A3F85407240CC8C333CF
:10005200C4540F4420C8834004F456800146F6DF9E
:10006200E4800B010204081020408090025FE47ECD
:10007200019360BCA3FF543F30E509541FFEE49393
:10008200A360010ECF54C025E060A840B8E493A35A
:10009200FAE493A3F8E493A3C8C582C8CAC583CA85
:1000A200F0A3C8C582C8CAC583CADFE9DEE780BE3D
:010268000095
:00000001FF
