:100170000115D20114D2010B0002100000020E0082
:0501800000020C00006C
:1001C2004380805389F0758A50758CFBC28DD28C26
:0101D200220A
:03000B00020144AB
:10014400C0E0C0D0C28C758A50758CFBE50BD3958A
:10015400125004D2A08002C2A0050BE50BC394C8C0
:0C0164004003750B00D28CD0D0D0E032EC
:1001D30043804053890F758BAE758DFBC28FD28ED2
:0101E30022F9
:0D01F5007FA77EAB7D10DDFEDEFADFF60099
:0102020022D9
:10018600751212E51365126005E4F50CF50D85127E
:04019600130201F55A
:10019A00751205E51365126005E4F50CF50D851277
:0401AA00130201F546
:1001AE00751208E51365126005E4F50CF50D851260
:0401BE00130201F532
:09020300C291D292D293C294225E
:09020C00C291C292D293D2942255
:03000E00120203D8
:0700110075091075081822A3
:1000AA0020950C20960912000E12019AE4F50B20F5
:1000BA00951A30961712000E2097051201AE800984
:1000CA0012001112020312019AE4F50B30951D2059
:1000DA00961A12020312001120970512018680094E
:1000EA0012020312001112019AE4F50B309517302F
:1000FA00961420970512020C8006120203120011B0
:07010A00751205E4F50B225C
:1001E4001201C21201D31202031200AA12001180DA
:0101F400F515
:03001B00020111CE
:10011100C0E0C0D0758B50758DFB050AE50AB4FFB0
:1001210007C2A2C2A1750A00E515B50A04D2A180D1
:1001310002C2A1E514B50A04D2A28002C2A2D0D0A3
:03014100D0E032D9
:0300000002001EDD
:0C001E00787FE4F6D8FD758115020065BE
:10002A000201E4E493A3F8E493A34003F68001F207
:10003A0008DFF48029E493A3F85407240CC8C333D7
:10004A00C4540F4420C8834004F456800146F6DFA6
:10005A00E4800B0102040810204080900170E47EC5
:10006A00019360BCA3FF543F30E509541FFEE4939B
:10007A00A360010ECF54C025E060A840B8E493A362
:10008A00FAE493A3F8E493A3C8C582C8CAC583CA8D
:10009A00F0A3C8C582C8CAC583CADFE9DEE780BE45
:010185000079
:00000001FF
