:0901DF00010900010A0001080FEA
:10016A00438901758AA4758CFFC28DD2AFD2A9D2F8
:02017A008C22D5
:03000300750B502A
:05000600C291D292221C
:0501F100D293C294222C
:0501F600C291D292222B
:0501FB00D293C2942222
:05020000C291C2922230
:05020500C293C2942227
:0C01C70075080E750C501200030201F1C7
:0F017C0075080F750C50750B501202000202052A
:0F018B0075080C750C50750B461201F60201FB3E
:0C01D30075080A750C461200030201F1C9
:0F019A00750812750C50750B461200060201F124
:0F01A900750813750C50750B321200060201F128
:0F01B80075080B750C32750B501200060201F121
:10009A003095093097063096031201C7209509302A
:1000AA0097062096031201C73095152097122096BD
:1000BA000F1201B82095093097062096031201C73E
:1000CA0020951520971230960F1201A92095093014
:1000DA0097062096031201C730951530971220967D
:1000EA000F12019A2095093097062096031201C72C
:1000FA0020951530971230960F1201D320950920BA
:09010A0097062096031201C7229A
:0801E90012016A12009A80FB6A
:03000B00020113DC
:10011300C0E0C0F0C0D0758AA4758CFF750B5A750A
:100123000C5A0509E509C394644003750900E50900
:10013300C3950B5004D2A18002C2A1E509C3950C5B
:100143005004D2A28002C2A2050AE50A75F0C8844F
:1001530085F00AE50AC395085004D2A08002C2A024
:07016300D0D0D0F0D0E03253
:0300000002000EED
:0C000E00787FE4F6D8FD75810C020055E7
:10001A000201E9E493A3F8E493A34003F68001F212
:10002A0008DFF48029E493A3F85407240CC8C333E7
:10003A00C4540F4420C8834004F456800146F6DFB6
:10004A00E4800B01020408102040809001DFE47E66
:10005A00019360BCA3FF543F30E509541FFEE493AB
:10006A00A360010ECF54C025E060A840B8E493A372
:10007A00FAE493A3F8E493A3C8C582C8CAC583CA9D
:10008A00F0A3C8C582C8CAC583CADFE9DEE780BE55
:0101E8000016
:00000001FF
