:0C000E000109D2010DD2010800010B0015
:1001AB00758900438901758CFF758AA4D2A9D28CFD
:0301BB00D2AF229E
:03000B000201509F
:10015000C0E0C0D0C28C758CFF758AA4E50BD39526
:100160000C5004D2A08002C2A0050BE50BC394C8BA
:0C0170004003750B00D28CD0D0D0E032E0
:0F021800438902E4F58DF58BD28ED2ABD2AF22A3
:10019700EF1FAA0670011E4A6009007D021DED606F
:0301A700EF80FAEC
:0101AA002232
:1001BE00C291D292D293C294750982750D82750C3A
:0201CE000C2201
:0C023500C291C292D293D294750C0C229C
:1001D000C291D292D293C29475098C750D78750C28
:0201E0000B22F0
:1001E200C291D292D293C294750978750D8C750C16
:0201F2000D22DC
:1001F400C291D292D293C294750991750D73750C04
:020204000E22C8
:10020600C291D292D293C294750973750D91750CF1
:020216000922BB
:1000AA003095093097063096031201BE2095093023
:1000BA0097062096031201BE3095152097122096B6
:1000CA000F1201F42095093097062096031201BEFB
:1000DA0020951520971230960F12020620950930A6
:1000EA0097062096031201BE309515309712209676
:1000FA000F1201E22095093097062096031201BEDD
:10010A0020951530971230960F1201D020950920AC
:09011A0097062096031201BE2293
:10017C003090171202357F327E001201971201F473
:0B018C007FD07E071201971201BE22F7
:0E0227001201AB1202181200AA12017C80F81C
:03001B00020123BC
:10012300C0E0C0D0D28E758DEC758BEC050AE50A64
:10013300B4E107C2A2C2A1750A00E509B50A02D259
:0D014300A1E50DB50A02D2A2D0D0D0E03265
:0300000002001EDD
:0C001E00787FE4F6D8FD75810D020065C6
:10002A00020227E493A3F8E493A34003F68001F2C3
:10003A0008DFF48029E493A3F85407240CC8C333D7
:10004A00C4540F4420C8834004F456800146F6DFA6
:10005A00E4800B010204081020408090000EE47E28
:10006A00019360BCA3FF543F30E509541FFEE4939B
:10007A00A360010ECF54C025E060A840B8E493A362
:10008A00FAE493A3F8E493A3C8C582C8CAC583CA8D
:10009A00F0A3C8C582C8CAC583CADFE9DEE780BE45
:01001A0000E5
:00000001FF
