:020000040800F2
:100000009006002089010008510800081F07000819
:10001000ED07000895040008931300080000000095
:10002000000000000000000000000000A50A000819
:10003000A70400080000000009090008C50B00081B
:10004000A3010008A3010008A3010008A301000800
:10005000A3010008A3010008A3010008A3010008F0
:10006000A3010008A3010008A3010008A3010008E0
:10007000A3010008A3010008A3010008A3010008D0
:10008000A3010008A3010008A3010008A3010008C0
:10009000A3010008A3010008A3010008A3010008B0
:1000A000A3010008A3010008A3010008A3010008A0
:1000B000290C0008A3010008A3010008A3010008FF
:1000C000A3010008A3010008A3010008A301000880
:1000D000A3010008A3010008A3010008DD11000826
:1000E00039050008A3010008A301000800F002F888
:1000F00000F03AF80AA090E8000C82448344AAF188
:100100000107DA4501D100F02FF8AFF2090EBAE885
:100110000F0013F0010F18BFFB1A43F0010318473B
:100120008C160000AC160000103A24BF78C878C1C5
:10013000FAD8520724BF30C830C144BF04680C60ED
:10014000704700000023002400250026103A28BF35
:1001500078C1FBD8520728BF30C148BF0B60704739
:100160001FB51FBD10B510BD00F031F81146FFF7E7
:10017000F7FF01F0D1F900F04FF803B4FFF7F2FFF9
:1001800003BC00F057F800000948804709480047C1
:10019000FEE7FEE7FEE7FEE7FEE7FEE7FEE7FEE737
:1001A000FEE7FEE704480549054A064B7047000094
:1001B000C90B0008ED000008900000209006002008
:1001C00090020020900200207047704770477546EB
:1001D00000F02CF8AE4605006946534620F00700B3
:1001E000854618B020B5FFF7DDFFBDE820404FF091
:1001F00000064FF000074FF000084FF0000B21F011
:100200000701AC46ACE8C009ACE8C009ACE8C009DD
:10021000ACE8C0098D46704710B50446AFF30080C6
:100220002046BDE81040FFF7A8BF00000048704717
:100230002C00002001491820ABBEFEE7260002007A
:10024000704721B1826842F00102826003E0826857
:1002500022F0010282607047014600208A6802F0A5
:1002600004020AB1012000E0002070470146C86C7A
:1002700080B270470246002013680B400BB101208A
:1002800000E000207047014600208A6802F0080262
:100290000AB1012000E000207047000030B502469E
:1002A0000020002350680F4C20400D790C6844EA70
:1002B00005242043506090680B4C2040D1E9025443
:1002C0002C434D7944EA450420439060D06A20F4E1
:1002D00070000C7C641EE4B2234340EA0350D062F9
:1002E00030BD0000FFFEF0FFFDF7F1FFF0B5044662
:1002F0000D4600200021092D11DDE068A5F10A0658
:1003000006EB4607072606FA07F18843A5F10A0619
:1003100006EB460603FA06F10843E0600CE02069AC
:1003200005EB4507072606FA07F1884305EB450666
:1003300003FA06F108432061072A0FDA606B561EA4
:1003400006EB86071F2606FA07F18843561E06EBC2
:10035000860605FA06F10843606322E00D2A0FDAEB
:10036000206BD61F06EB86071F2606FA07F1884387
:10037000D61F06EB860605FA06F10843206310E057
:10038000E06AA2F10D0606EB86071F2606FA07F1C2
:100390008843A2F10D0606EB860605FA06F108432E
:1003A000E062F0BD816841F008018160704721B1D1
:1003B000826842F4A002826003E0826822F4A00214
:1003C00082607047816841F00401816070470000DD
:1003D00010B504460523012221460948FFF786FF90
:1003E00001210748FFF7E3FF00BF02210448FFF7A0
:1003F00041FF0028F9D00248FFF738FF10BD000088
:100400000024014000B587B00121480200F09AFAAB
:100410000121042000F096FA4FF4004000F076FA33
:1004200000208DF81B000320ADF818008DF81A008D
:1004300006A9164800F0CCF80020019004904FF473
:100440006020039000208DF809008DF8080001203D
:100450008DF8140001A90E48FFF720FF01210C4878
:10046000FFF7EFFE0A48FFF79DFF00BF0848FFF7C0
:100470000AFF0128FAD00648FFF7A4FF00BF04488E
:10048000FFF7EAFE0128FAD007B000BD00080140DE
:100490000024014000BFFEE710B500214FF080406E
:1004A00000F0B3FC10BD704700B5034603E04FF405
:1004B0007A7000F005F8181EA3F10103F7D100BD12
:1004C00000EBC001C9004FF0E022516100219161B1
:1004D0000521116100BF4FF0E021096901F480316D
:1004E0000029F8D004214FF0E0221161704700008C
:1004F00000B501F015F800200D49086001200D49F4
:10050000C1F88C0100200A49083108600120091D4A
:100510000860002006491C3108600120091D0860A0
:100520000020091D086001200249C1F8B00100BD8A
:10053000880121420000214210B54FF4804000F0B4
:100540000FF8012808D105480088401C034908809D
:100550004FF4804000F004F810BD000018000020A7
:10056000014600200022074B1B6803EA0102054BED
:1005700014331B680B4013B10AB1012000E00020C6
:10058000704700000004014000B500F0C9FF0120E1
:100590000D49086000200D49C1F88C0101200A496D
:1005A000083108600020091D0860012006491C313F
:1005B00008600020091D08600120091D0860002056
:1005C0000249C1F8B00100BD88012142000021426A
:1005D0002DE9F041024600250026002000230024DA
:1005E000002791F803C00CF00F0591F803C00CF040
:1005F000100CBCF1000F03D091F802C04CEA0505C5
:1006000091F800C0BCF1000F31D0146800202BE03D
:100610004FF0010C0CFA00F3B1F800C00CEA03062D
:100620009E4220D183004FF00F0C0CFA03F7BC431D
:1006300005FA03FC4CEA040491F803C0BCF1280F4E
:1006400006D14FF0010C0CFA00FCC2F814C00AE00D
:1006500091F803C0BCF1480F05D14FF0010C0CFA22
:1006600000FCC2F810C0401C0828D1D31460B1F8B7
:1006700000C0BCF1FF0F34DD546800202EE000F113
:10068000080C4FF0010808FA0CF3B1F800C00CEAAE
:1006900003069E4221D183004FF00F0C0CFA03F7A2
:1006A000BC4305FA03FC4CEA040491F803C0BCF116
:1006B000280F05D100F1080C08FA0CF8C2F81480D4
:1006C00091F803C0BCF1480F07D100F1080C4FF0BE
:1006D000010808FA0CF8C2F81080401C0828CED394
:1006E0005460BDE8F0810246002093680B400BB1D6
:1006F000012000E0002070474161704701617047B0
:1007000010B54FF0804000F08CFB044400204FF007
:10071000804188843220FFF7C7FE204610BD00BF0D
:10072000FEE7000010B56421144800F0FAFC6421D3
:10073000124800F0F8FC3221104800F0F6FC32219B
:100740000E4800F0F4FC00200D49086001200D491E
:10075000C1F88C010A49083108600020091D0860B1
:10076000012007491C3108600020091D0860091D8F
:10077000086001200349C1F8B00110BD002C014000
:10078000880121420000214210B56421144800F084
:10079000C8FC6421124800F0C6FC3221104800F069
:1007A000C4FC32210E4800F0C2FC01200D49086053
:1007B00000200D49C1F88C010A4908310860012068
:1007C000091D0860002007491C3108600120091D2F
:1007D0000860091D086000200349C1F8B00110BD80
:1007E000002C0140880121420000214200BFFEE7A9
:1007F00008B50121042000F0A5F818208DF80300A9
:100800003C20ADF8000003208DF802006946034843
:10081000FFF7DEFE00F068FA08BD000000080140A6
:1008200008B50121042000F08DF818208DF8030090
:100830004FF4F050ADF8000003208DF80200694637
:100840000248FFF7C5FE00F04FFA08BD000801405E
:100850007047000070B5002100230F22C47804B354
:10086000154C246804F4E064C4F5E064210AC1F185
:100870000403CA40447804FA03F184781440214305
:1008800009010E4C0678A155047804F01F050124D7
:10089000AC4005786D11AD0005F1E025C5F80041CB
:1008A00009E0047804F01F050124AC40044D0678EB
:1008B000761145F8264070BD0CED00E000E400E044
:1008C00080E100E002490143024A116070470000E4
:1008D0000000FA050CED00E010B500214FF080405B
:1008E00000F028FC0020034908600121880700F07F
:1008F0008CFA10BD1400002010B5044621464FF0BC
:10090000804000F010FC10BD704700000146002040
:10091000034A506820F4404008435060704700008C
:100920000010024029B1064AD2690243044BDA6141
:1009300004E0034AD2698243014BDA617047000048
:100940000010024029B1064A92690243044B9A61A1
:1009500004E0034A92698243014B9A6170470000A8
:100960000010024030B500210022002400232D4D4C
:100970006D6805F00C0121B1042905D0082923D1A7
:1009800005E0294D056022E0274D05601FE0254D5B
:100990006D6805F47012234D6D6805F480340225EE
:1009A00005EB92421CB9214D554305600BE01D4DEE
:1009B0006D6805F400351DB11C4D5543056002E01E
:1009C000194D5543056002E0174D056000BF00BF9B
:1009D000144D6D6805F0F0010909154D6B5C056853
:1009E000DD4045600F4D6D6805F4E061090A104D6A
:1009F0006B5C4568DD4085600A4D6D6805F46051AB
:100A0000C90A0B4D6B5C4568DD40C560054D6D68DE
:100A100005F44041890B074D6B5CC568B5FBF3F5E8
:100A2000056130BD0010024000127A0000093D004F
:100A3000000000201000002010B54FF4FA71164895
:100A400000F06FFB4FF4FA71134800F06CFB4FF4A9
:100A5000FA61114800F069FB4FF4FA610E4800F0AA
:100A600066FB01200D49086000200D49C1F88C018A
:100A70000A49083108600120091D086007491C3136
:100A800008600020091D0860091D08600120044954
:100A9000C1F8B00110BD0000002C014088012142C6
:100AA00000002142704710B500F002F810BD0000B0
:100AB0000CB50020019000903348006840F480306D
:100AC0003149086000BF3048006800F400300090F1
:100AD0000198401C0190009818B90198B0F5A06FDA
:100AE000F1D12948006800F4003010B101200090D5
:100AF00001E0002000900098012843D123480068BD
:100B000040F01000214908600846006820F003000A
:100B100008600846006840F0020008601A48406813
:100B2000194948600846406848600846406840F4F3
:100B3000806048600846406820F47C1048600846A1
:100B4000406840F4E81048600846006840F0807053
:100B5000086000BF0C48006800F000700028F9D061
:100B60000948406820F0030007494860084640688B
:100B700040F00200486000BF0348406800F00C00ED
:100B80000828F9D10CBD00000010024000200240EE
:100B900000200A4908600A49C1F88C010749083158
:100BA0000860091D086005491C310860091D0860BE
:100BB000091D08600249C1F8B0017047880121424F
:100BC000000021427047000010B51348006840F053
:100BD00001001149086008464068104908400E4964
:100BE0004860084600680E4908400B4908600846FE
:100BF000006820F4802008600846406820F4FE0069
:100C000048604FF41F008860FFF74DFF4FF0006011
:100C10000449086010BD0000001002400000FFF809
:100C2000FFFFF6FE08ED00E010B50121880700F097
:100C3000FBF8012808D10121800700F0E3F8034800
:100C40000068401C0149086010BD0000140000202D
:100C500000B589B001210846FFF764FE0121042098
:100C6000FFF770FE18208DF823000220ADF8200059
:100C700003208DF8220008A91A48FFF7A9FC4FF0BD
:100C8000804000F0E2F80020ADF81A00ADF8160040
:100C900044F61F60ADF818004720ADF8140000209E
:100CA0008DF81C0005A94FF0804000F045FA01A81E
:100CB00000F02DFA6020ADF804000020ADF80C0023
:100CC0000120ADF806000020ADF80A0001A94FF0A0
:100CD000804000F017F90121880700F096F809B06C
:100CE00000BD00000008014000B589B001210420CA
:100CF000FFF728FE01210820FFF724FE0121022032
:100D0000FFF710FE40F2CF70ADF81C004720ADF8A1
:100D100018000020ADF81A00ADF81E0006A93048F2
:100D200000F00AFA3820ADF8140004208DF81700FE
:100D300003208DF8160005A92A48FFF749FC032077
:100D4000ADF8140010208DF8170003208DF8160060
:100D500005A92448FFF73CFCC020ADF81400102082
:100D60008DF8170003208DF8160005A91E48FFF71F
:100D70002FFC6020ADF804000120ADF80800002031
:100D8000ADF80C003220ADF80A0001A9144800F0BB
:100D900063F801A9124800F0B5F801A9104800F065
:100DA00011F901A90E4800F067F908210C4800F07C
:100DB0009FF808210A4800F0F7F80821084800F0D9
:100DC00051F90821064800F095F90121044800F086
:100DD0000DF80121024800F018F809B000BD00002C
:100DE00000040040000C01400008014021B10288CD
:100DF00042F08002028004E002884FF67F731A40BE
:100E000002807047CA430282704721B1028842F0D3
:100E10000102028004E002884FF6FE731A4002804D
:100E200070470146888C704730B502460020002389
:100E30000024158A05EA0103958905EA010413B126
:100E40000CB1012000E0002030BD01894FF6F8729E
:100E5000114001817047000070B50024002200237A
:100E6000058C4FF6FE7635400584028C8388048B12
:100E70004FF68F752C40B51E2C400D882C43751EE7
:100E80002A400D892A434D882A43144DA8420BD08D
:100E9000134DA84208D0134DA84205D0124DA842C8
:100EA00002D0124DA84213D14FF6F7752A404D8952
:100EB0002A434FF6FB752A408D882A434FF6FF657B
:100EC0002B404FF6FF552B408D892B43CD892B436B
:100ED00083800483CD888586028470BD002C014008
:100EE00000340140004001400044014000480140FE
:100EF0000A460021018B4FF6F77319401143018315
:100F00007047000070B5002400220023058C4FF6C6
:100F1000EF7635400584028C8388048B48F6FF7594
:100F20002C404FF6FF452C400D884FF6FF7606EA21
:100F300005252C434FF6DF752A400D8906EA051575
:100F40002A434D8806EA05152A43154DA84202D0CA
:100F5000144DA8421DD14FF67F752A404D894FF69A
:100F6000FF7606EA05152A434FF6BF752A408D889D
:100F700006EA05152A434FF6FF352B404FF2FF7561
:100F80002B408D8906EA85052B43CD8906EA850528
:100F90002B4383800483CD880587028470BD0000C5
:100FA000002C0140003401400A460021018B4FF221
:100FB000FF7319404FF6FF7303EA022319430183BD
:100FC0007047000070B5002400220023058C4FF606
:100FD000FF6635400584028C8388848B4FF68F75BD
:100FE0002C404FF6FC752C400D882C434FF6FF55D6
:100FF0002A400D894FF6FF7606EA05252A434D88DB
:1010000006EA05252A43154DA84202D0144DA842F0
:101010001DD14FF2FF752A404D894FF6FF7606EA43
:1010200005252A434FF6FF352A408D8806EA052517
:101030002A434EF6FF752B404DF6FF752B408D89E8
:1010400006EA05152B43CD8906EA05152B43838057
:101050008483CD888587028470BD0000002C014008
:10106000003401400A460021818B4FF6F773194086
:10107000114381837047000070B5002200230024D3
:10108000058C4EF6FF7635400584038C8488828B70
:1010900048F6FF752A404FF6FF452A400D884FF667
:1010A000FF7606EA05252A434DF6FF752B400D898C
:1010B00006EA05352B434D8806EA05352B430B4DD3
:1010C000A84202D00A4DA84208D14BF6FF752C4029
:1010D0008D894FF6FF7606EA85152C43848082833E
:1010E000CD88A0F84050038470BD0000002C014062
:1010F000003401400A460021818B4FF2FF731940F2
:101100004FF6FF7303EA02231943818370470021DE
:10111000018041808180C180018141818181C181C3
:101120007047818670470187704781877047A0F8B4
:101130004010704781847047002202881D4B9842FE
:101140000ED01D4B98420BD0B0F1804F08D01B4BF6
:10115000984205D01A4B984202D01A4B984204D1BB
:101160004FF68F731A404B881A43174B984207D09B
:10117000164B984204D04FF6FF431A40CB881A43CF
:1011800002808B8883850B8803850A4B98420BD09D
:10119000094B984208D00E4B984205D00D4B98420F
:1011A00002D00D4B984201D10B7A03860123838232
:1011B00070470000002C0140003401400004004052
:1011C00000080040000C00400010004000140040E7
:1011D00000400140004401400048014010B540F289
:1011E0002551094800F031F801280CD1064800F0DB
:1011F000CBF80649087001200549087040F22551D6
:10120000014800F007F810BD004800401A00002017
:101210001B00002010B50022002340F66A14A142F2
:1012200000D100BF0A1201249440A3B2DC43048021
:1012300010BD21B1828942F40052828104E082898A
:101240004DF6FF731A408281704702460020B1F5C7
:10125000007F00D100BF13880B400BB1012000E0DC
:1012600000207047F0B5034600240026002500202A
:1012700040F66A17B94200D100BF1846C1F34214C4
:1012800001F01F06012707FA06F5012C01D10C30E9
:1012900004E0022C01D1103000E014301AB10768CC
:1012A0002F43076002E00768AF430760F0BD00000E
:1012B0002DE9F04786B005460E460024A24600BF41
:1012C000A1460027B08900B100BF2F462C8A4CF6FA
:1012D000FF700440F08804432C82AC894EF6F31072
:1012E0000440B08831890843718908430443AC81C4
:1012F000AC8A4FF6FF400440B0890443AC8201A899
:10130000FFF730FB1F48874202D1DDF810A001E053
:10131000DDF80CA0A88900F4004040B10AEBCA0037
:1013200000EB0A1031684900B0FBF1F807E00AEB66
:10133000CA0000EB0A1031688900B0FBF1F86420A4
:10134000B8FBF0F004012009642101FB1089A88991
:1013500000F4004040B1322000EBC900B0FBF1F0D6
:1013600000F00700044308E0322000EB091064217C
:10137000B0FBF1F000F00F0004432C8106B0BDE893
:10138000F08700000038014001468888C0F308005B
:10139000704700BFFEE7000010B500F0E3F8FFF76C
:1013A00027FAFFF73DFAFFF79FFCFFF72BF8FFF74F
:1013B0004FFC00F033F900F0C7F8012803D100F02A
:1013C000C3F82649088025480088072844DC2348BC
:1013D0000088801E062816D2DFE800F00306090CFC
:1013E0000F12FFF7D1F800BFFFF782F800BFFFF739
:1013F00099F900BFFFF7C8F900BFFFF71DFB00BF59
:1014000000F078F800BF00BF1448008808280FD10A
:101410000020FEF7DDFF1249086008460068B42886
:1014200006DC08460068401C0860087800F01AF8DE
:101430000A48008809280FD10020FEF7C9FF084993
:10144000086008460068002806DB08460068401E61
:101450000860087800F006F810BD000028000020A1
:101460002400002070B50446B42094FBF0F000EB9B
:101470004001C1EBC0104FF4FA7101EB001085B2CE
:101480002846FFF739FA70BD70B5002400254FF4E7
:1014900080711748FFF732F90A20FFF711F84FF46F
:1014A00080711348FFF728F900BF4FF4007110480E
:1014B000FFF719F90028F8D0FFF70EFA00BF4FF434
:1014C00000710B48FFF70FF90128F8D0FEF7E4FF91
:1014D000FFF716F904460CB9002506E03A20B4FBE4
:1014E000F0F6304600F0D4F80546284670BD0000FE
:1014F000000C014010B5FFF7C7FF04460549204620
:1015000000F0DAF802D2FFF743FB01E0FFF73CF806
:1015100010BD00000000C84101E0FFF73DFFFCE7FF
:101520000120054908600549C1F89C01044908608B
:101530000449C1F88401704798012142000021420A
:10154000808121420080214205480078012804D191
:10155000002003490870012070470020FCE70000CC
:101560001B00002000B587B001218804FFF7EAF9CD
:1015700001210420FFF7E6F918208DF81B004FF435
:101580008060ADF8180003208DF81A0006A92148E4
:10159000FFF71EF848208DF81B004FF40060ADF8EF
:1015A000180003208DF81A0006A91A48FFF710F852
:1015B0004FF4165002900020ADF814000C20ADF846
:1015C00012000020ADF81000ADF80E00ADF80C00D0
:1015D00002A91148FFF76CFE012240F225510E4886
:1015E000FFF740FE4FF4A060FFF76CF927208DF85D
:1015F000040001208DF807008DF805008DF8060025
:1016000001A8FFF727F901210348FFF712FE07B0F1
:1016100000BD0000000C01400048004008B5012159
:101620000820FFF78FF910208DF803000001ADF8B6
:10163000000003208DF8020069460E48FEF7C8FF3F
:101640004FF480710B48FFF757F84FF40070ADF876
:10165000000028208DF8030003208DF80200694661
:101660000448FEF7B5FF4FF400710248FFF744F855
:1016700008BD0000000C0140401058BFC0F14040C0
:10168000491058BFC1F140418142EFF300807047DB
:10169000B0FA80F310FA03F2C3F19D030AD0D90522
:1016A00001EB1220530638BF704700F1010008BF5C
:1016B00020F001007047000050EA010C00F1138097
:1016C0001CF5000F58BFBCF5000F01D488427047CD
:1016D00007D710F5000F58BF11F5000F15D4884239
:1016E0007047894270471CF5000F04D5BCF5000F08
:1016F000F7D5814270474FF0807C1CEB400F38BF1C
:101700001CEB410F01D28142704710B500F008F880
:10171000922449004FF000504FF08051FFF7ACBFCA
:101720000EF1020E2EF0030E5EF8044B244204D498
:101730004FEA4102B2F17F4F11D84FEA4003B3F1B3
:101740007F4F0CD80ED14FEAD07CB2F17F4F0CEB1B
:101750004C0C0CF1020C08BF4CEBD17C04E04FF0B8
:10176000080C01E04FEAD17C0CEB4C0324FA03F4A3
:1017700004F00704B4F1040C06D20EEB840CBDE8AF
:1017800010404CF0010C6047DFE80CF00708020243
:101790004FF00040A0F5800010BD0846420018BF81
:1017A000D2F1807288BF00F0004010BDCC17000855
:1017B000000000202C00000028010008F817000895
:1017C0002C00002064060000440100080000000016
:1017D00001020304010203040607080902040608C3
:1017E00000000000000000000000000000000000F9
:0817F0000000000000000000F1
:04000005080000ED02
:00000001FF
