:03000300010A00EF
:0D020A007FA77EAB7D10DDFEDEFADFF60083
:0102170022C4
:10018E00758900438901758CFF758AA4D2A9D28C1A
:03019E00D2AF22BB
:03000B000201628D
:10016200C0E0C0D0C28C758CFF758AA4E50AD39515
:100172000F5004D2A08002C2A0050AE50AC394C8A7
:0C0182004003750A00D28CD0D0D0E032CF
:0F01FB00438902E4F58DF58BD28ED2ABD2AF22C1
:1001A100D291C292C293D2947508A07510A0750F16
:0201B1000C221E
:1001B300D291C292C293D2947508B47510A0750FF0
:0201C3000A220E
:1001C500D291C292C293D2947508A07510B4750FDE
:0201D5000D22F9
:1001D700D291C292C293D2947508CD7510AF750FA4
:0201E7000E22E6
:1001E900D291C292C293D2947508AF7510CD750F92
:0201F9000922D9
:1000AA0030900F1201D712020A1201E912020A1243
:1000BA0001A13095093097063096031201A12095C7
:1000CA00093097062096031201A130951520971240
:1000DA0020960F1201E920950930970620960312FF
:1000EA0001A120951520971230960F1201D720955D
:1000FA00093097062096031201A130951530971200
:10010A0020960F1201C520950930970620960312F2
:10011A0001A120951530971230960F1201B3209540
:0B012A00092097062096031201A12275
:0B000E0012018E1201FB1200AA80FB01
:03001B00020135AA
:10013500C0E0C0D0D28E758DEC758BEC0509E50954
:10014500B4FF07C2A2C2A1750900E508B50902D22C
:0D015500A1E510B50902D2A2D0D0D0E03251
:0300000002001EDD
:0C001E00787FE4F6D8FD758110020065C3
:10002A0002000EE493A3F8E493A34003F68001F2DE
:10003A0008DFF48029E493A3F85407240CC8C333D7
:10004A00C4540F4420C8834004F456800146F6DFA6
:10005A00E4800B0102040810204080900003E47E33
:10006A00019360BCA3FF543F30E509541FFEE4939B
:10007A00A360010ECF54C025E060A840B8E493A362
:10008A00FAE493A3F8E493A3C8C582C8CAC583CA8D
:10009A00F0A3C8C582C8CAC583CADFE9DEE780BE45
:0100060000F9
:00000001FF
