:020000040800F2
:10000000680600208901000829040008B7030008D9
:100010002504000843020008C3080008000000008F
:10002000000000000000000000000000A90400081B
:1000300047020008000000002B0400089505000896
:10004000A3010008A3010008A3010008A301000800
:10005000A3010008A3010008A3010008A3010008F0
:10006000A3010008A3010008A3010008A3010008E0
:10007000A3010008A3010008A3010008A3010008D0
:10008000A3010008A3010008A3010008A3010008C0
:10009000A3010008A3010008A3010008A3010008B0
:1000A000A3010008A3010008A3010008A3010008A0
:1000B000F9050008A3010008A3010008A301000836
:1000C000A3010008A3010008A3010008A301000880
:1000D000A301000849080008A3010008A3010008C3
:1000E00049020008A3010008A301000800F002F87B
:1000F00000F03AF80AA090E8000C82448344AAF188
:100100000107DA4501D100F02FF8AFF2090EBAE885
:100110000F0013F0010F18BFFB1A43F0010318473B
:10012000040B0000240B0000103A24BF78C878C1EB
:10013000FAD8520724BF30C830C144BF04680C60ED
:10014000704700000023002400250026103A28BF35
:1001500078C1FBD8520728BF30C148BF0B60704739
:100160001FB51FBD10B510BD00F031F81146FFF7E7
:10017000F7FF00F071FC00F04FF803B4FFF7F2FF57
:1001800003BC00F057F800000948804709480047C1
:10019000FEE7FEE7FEE7FEE7FEE7FEE7FEE7FEE737
:1001A000FEE7FEE704480549054A064B7047000094
:1001B00099050008ED00000868000020680600208E
:1001C000680200206802002070477047704775463B
:1001D00000F02CF8AE4605006946534620F00700B3
:1001E000854618B020B5FFF7DDFFBDE820404FF091
:1001F00000064FF000074FF000084FF0000B21F011
:100200000701AC46ACE8C009ACE8C009ACE8C009DD
:10021000ACE8C0098D46704710B50446AFF30080C6
:100220002046BDE81040FFF7A8BF00000048704717
:100230000800002001491820ABBEFEE7260002009E
:10024000704700BFFEE7704710B54FF4804000F0E4
:100250000FF8012808D105480088401C0349088090
:100260004FF4804000F004F810BD000000000020B2
:10027000014600200022074B1B6803EA0102054BE0
:1002800014331B680B4013B10AB1012000E00020B9
:1002900070470000000401402DE9F04102460025AE
:1002A0000026002000230024002791F803C00CF052
:1002B0000F0591F803C00CF0100CBCF1000F03D037
:1002C00091F802C04CEA050591F800C0BCF1000F9E
:1002D00031D0146800202BE04FF0010C0CFA00F331
:1002E000B1F800C00CEA03069E4220D183004FF013
:1002F0000F0C0CFA03F7BC4305FA03FC4CEA0404A8
:1003000091F803C0BCF1280F06D14FF0010C0CFA94
:1003100000FCC2F814C00AE091F803C0BCF1480F19
:1003200005D14FF0010C0CFA00FCC2F810C0401CC3
:100330000828D1D31460B1F800C0BCF1FF0F34DD40
:10034000546800202EE000F1080C4FF0010808FA74
:100350000CF3B1F800C00CEA03069E4221D18300E1
:100360004FF00F0C0CFA03F7BC4305FA03FC4CEA00
:10037000040491F803C0BCF1280F05D100F1080C6A
:1003800008FA0CF8C2F8148091F803C0BCF1480FC9
:1003900007D100F1080C4FF0010808FA0CF8C2F878
:1003A0001080401C0828CED35460BDE8F081416124
:1003B00070470161704700BFFEE7000008B50121EA
:1003C000102000F043F848208DF803004FF4C0409F
:1003D000ADF8000003208DF8020069460148FFF7E0
:1003E0005BFF08BD0010014010B5A0210A4800F0D5
:1003F000D4F9A521084800F0D2F901200749086086
:1004000000200749C1F8AC01044908310860012007
:100410000349C1F8B40110BD00040040A881214285
:100420000080214200BFFEE77047704729B1064AAD
:10043000D2690243044BDA6104E0034AD269824381
:10044000014BDA61704700000010024029B1064AF2
:1004500092690243044B9A6104E0034A9269824321
:10046000014B9A61704700000010024010B5A021B6
:100470000A4800F092F9A521084800F090F9002000
:100480000749086001200749C1F8AC010449083157
:10049000086000200349C1F8B40110BD0004004009
:1004A000A881214200802142704710B500F002F877
:1004B00010BD00000CB5002001900090334800688A
:1004C00040F480303149086000BF3048006800F4D3
:1004D000003000900198401C0190009818B90198D4
:1004E000B0F5A06FF1D12948006800F4003010B1D8
:1004F0000120009001E0002000900098012843D1E5
:100500002348006840F01000214908600846006850
:1005100020F0030008600846006840F00200086010
:100520001A484068194948600846406848600846CB
:10053000406840F4806048600846406820F47C10C1
:1005400048600846406840F4E81048600846006883
:1005500040F08070086000BF0C48006800F0007038
:100560000028F9D00948406820F003000749486096
:100570000846406840F00200486000BF03484068F9
:1005800000F00C000828F9D10CBD0000001002405A
:10059000002002407047000010B51348006840F08A
:1005A00001001149086008464068104908400E499A
:1005B0004860084600680E4908400B490860084634
:1005C000006820F4802008600846406820F4FE009F
:1005D00048604FF41F008860FFF767FF4FF000602E
:1005E0000449086010BD0000001002400000FFF840
:1005F000FFFFF6FE08ED00E010B50121880700F0CE
:1006000016F8012803D10121800700F001F810BD80
:10061000CA430282704721B1028842F0010202807F
:1006200004E002884FF6FE731A400280704730B52E
:100630000246002000230024158A05EA010395895B
:1006400005EA010413B10CB1012000E0002030BD27
:1006500070B5002400220023058C4FF6FF6635405C
:100660000584028C8388848B4FF68F752C404FF65F
:10067000FC752C400D882C434FF6FF552A400D8900
:100680004FF6FF7606EA05252A434D8806EA05253A
:100690002A43154DA84202D0144DA8421DD14FF255
:1006A000FF752A404D894FF6FF7606EA05252A4355
:1006B0004FF6FF352A408D8806EA05252A434EF677
:1006C000FF752B404DF6FF752B408D8906EA051509
:1006D0002B43CD8906EA05152B4383808483CD887F
:1006E0008587028470BD0000002C01400034014069
:1006F0000A460021818B4FF6F7731940114381831D
:100700007047000070B5002200230024058C4EF6CF
:10071000FF7635400584038C8488828B48F6FF750C
:100720002A404FF6FF452A400D884FF6FF7606EA2D
:1007300005252A434DF6FF752B400D8906EA053540
:100740002B434D8806EA05352B430B4DA84202D0BA
:100750000A4DA84208D14BF6FF752C408D894FF603
:10076000FF7606EA85152C4384808283CD88A0F825
:100770004050038470BD0000002C01400034014053
:100780000A460021818B4FF2FF7319404FF6FF7329
:1007900003EA022319438183704781877047A0F8D9
:1007A00040107047002202881D4B98420ED01D4B0E
:1007B00098420BD0B0F1804F08D01B4B984205D027
:1007C0001A4B984202D01A4B984204D14FF68F73BD
:1007D0001A404B881A43174B984207D0164B984241
:1007E00004D04FF6FF431A40CB881A4302808B880F
:1007F00083850B8803850A4B98420BD0094B98429E
:1008000008D00E4B984205D00D4B984202D00D4BAC
:10081000984201D10B7A038601238382704700003E
:10082000002C01400034014000040040000800405A
:10083000000C004000100040001400400040014047
:10084000004401400048014010B540F225510948DC
:1008500000F025F801280CD1064800F02DF80649D3
:10086000087001200549087040F22551014800F048
:1008700007F810BD003801400200002003000020EE
:1008800010B50022002340F66A14A14200D100BF37
:100890000A1201249440A3B2DC43048010BD024636
:1008A0000020B1F5007F00D100BF13880B400BB1D1
:1008B000012000E00020704701468888C0F308004E
:1008C000704700BFFEE7000010B500F03BF900F0F4
:1008D00041F95F48006801280BD15D48001F00689E
:1008E000012806D15A4808380068012801D100F0D3
:1008F00051F957480068C8B95548001F0068A8B9A1
:10090000534808380068012810D1FFF76DFD5048A2
:10091000006858B94E48001F0068012806D14C48AD
:1009200008380068012801D100F034F9484800680F
:10093000012818D14648001F0068A0B9444808386B
:10094000006880B9FFF792FD4148006801280AD18C
:100950003F48001F0068012805D13D48083800685D
:1009600008B900F017F93A480068012833D138482F
:10097000001F006878BB36480838006801282AD173
:100980003448007800F0010098B9FFF76FFD01E0EE
:10099000FFF76CFD2E48006801281CD12C48001F71
:1009A0000068012817D12A48083800680028EFD0CD
:1009B00011E0FFF719FD01E0FFF716FD244800687C
:1009C00048B92348001F0068012804D1204808388E
:1009D00000680128F0D01E48006848B91C48001F74
:1009E000006828B91A480838006808B900F0F2F819
:1009F0001748006850BB1648001F0068012825D121
:100A000013480838006808BB00F0C4F801E0FFF79D
:100A1000EBFC0F48006848B90D48001F006801282A
:100A200004D10B48083800680128F0D001E0FFF736
:100A30001DFD0748006848B90548001F00680128E7
:100A400004D10348083800680128F0D010BD000028
:100A5000148121420400002000F00CF800F0CCF8D2
:100A600000F024F8FFF7AAFC00F07EF801E0FFF7A1
:100A70002BFFFCE708B501210820FFF7E7FC4FF446
:100A80007050ADF8000010208DF8030003208DF8A1
:100A9000020069460448FFF7FFFB4FF4705102481B
:100AA000FFF785FC08BD0000000C014000B589B0CF
:100AB00001210220FFF7BAFC01210820FFF7C6FC44
:100AC0000320ADF8200018208DF8230003208DF8B6
:100AD000220008A91948FFF7DFFBC720ADF818006E
:100AE0002320ADF814000020ADF81A00ADF8160070
:100AF00005A91348FFF756FE6020ADF80400012059
:100B0000ADF806000020ADF80C00ADF80A0001A910
:100B10000B48FFF79DFD01A90948FFF7F3FD0821E8
:100B20000748FFF7E5FD08210548FFF729FE0121E9
:100B30000348FFF770FD09B000BD0000000C014044
:100B40000004004010B580210148FFF732FC10BDC1
:100B5000000C014010B54FF480710248FFF729FCEA
:100B600010BD0000000C014008B501210820FFF76E
:100B70006DFC4FF4C070ADF8000010208DF803003C
:100B800003208DF8020069460148FFF785FB08BD88
:100B9000000C014010B5A0210B48FFF7FEFDA52178
:100BA0000948FFF7FCFD01200849086000200849BA
:100BB000C1F8AC0101200549083108600020044952
:100BC000C1F8B40110BD000000040040A88121421A
:100BD000008021420020064908600649C1F8AC01A6
:100BE0000349083108600349C1F8B40170470000A7
:100BF000A88121420080214208B501210820FFF789
:100C000025FC3820ADF8000004208DF803000320F7
:100C10008DF8020069460248FFF73EFB08BD000060
:100C2000000C0140440C00080000002008000000F7
:100C3000280100084C0C0008080000206006000095
:0C0C40004401000800000000000000005B
:04000005080000ED02
:00000001FF
