:020000040800F2
:100000008806002089010008E50600085906000856
:10001000E106000895040008CB0B00080000000072
:100020000000000000000000000000007D08000843
:1000300099040008000000006D0700086909000825
:10004000A3010008A3010008A3010008A301000800
:10005000A3010008A3010008A3010008A3010008F0
:10006000A3010008A3010008A3010008A3010008E0
:10007000A3010008A3010008A3010008A3010008D0
:10008000A3010008A3010008A3010008A3010008C0
:10009000A3010008A3010008A3010008A3010008B0
:1000A000A3010008A3010008A3010008A3010008A0
:1000B000CD090008A3010008A3010008A30100085E
:1000C000A3010008A3010008A3010008A301000880
:1000D000A30100080D0A0008A3010008A3010008FD
:1000E000E1040008A3010008A301000800F002F8E1
:1000F00000F03AF80AA090E8000C82448344AAF188
:100100000107DA4501D100F02FF8AFF2090EBAE885
:100110000F0013F0010F18BFFB1A43F0010318473B
:10012000A00C0000C00C0000103A24BF78C878C1B1
:10013000FAD8520724BF30C830C144BF04680C60ED
:10014000704700000023002400250026103A28BF35
:1001500078C1FBD8520728BF30C148BF0B60704739
:100160001FB51FBD10B510BD00F031F81146FFF7E7
:10017000F7FF00F02DFD00F04FF803B4FFF7F2FF9A
:1001800003BC00F057F800000948804709480047C1
:10019000FEE7FEE7FEE7FEE7FEE7FEE7FEE7FEE737
:1001A000FEE7FEE704480549054A064B7047000094
:1001B0006D090008ED000008880000208806002076
:1001C00088020020880200207047704770477546FB
:1001D00000F02CF8AE4605006946534620F00700B3
:1001E000854618B020B5FFF7DDFFBDE820404FF091
:1001F00000064FF000074FF000084FF0000B21F011
:100200000701AC46ACE8C009ACE8C009ACE8C009DD
:10021000ACE8C0098D46704710B50446AFF30080C6
:100220002046BDE81040FFF7A8BF00000048704717
:100230002400002001491820ABBEFEE72600020082
:10024000704721B1826842F00102826003E0826857
:1002500022F0010282607047014600208A6802F0A5
:1002600004020AB1012000E0002070470146C86C7A
:1002700080B270470246002013680B400BB101208A
:1002800000E000207047014600208A6802F0080262
:100290000AB1012000E000207047000030B502469E
:1002A0000020002350680F4C20400D790C6844EA70
:1002B00005242043506090680B4C2040D1E9025443
:1002C0002C434D7944EA450420439060D06A20F4E1
:1002D00070000C7C641EE4B2234340EA0350D062F9
:1002E00030BD0000FFFEF0FFFDF7F1FFF0B5044662
:1002F0000D4600200021092D11DDE068A5F10A0658
:1003000006EB4607072606FA07F18843A5F10A0619
:1003100006EB460603FA06F10843E0600CE02069AC
:1003200005EB4507072606FA07F1884305EB450666
:1003300003FA06F108432061072A0FDA606B561EA4
:1003400006EB86071F2606FA07F18843561E06EBC2
:10035000860605FA06F10843606322E00D2A0FDAEB
:10036000206BD61F06EB86071F2606FA07F1884387
:10037000D61F06EB860605FA06F10843206310E057
:10038000E06AA2F10D0606EB86071F2606FA07F1C2
:100390008843A2F10D0606EB860605FA06F108432E
:1003A000E062F0BD816841F008018160704721B1D1
:1003B000826842F4A002826003E0826822F4A00214
:1003C00082607047816841F00401816070470000DD
:1003D00010B504460523012221460948FFF786FF90
:1003E00001210748FFF7E3FF00BF02210448FFF7A0
:1003F00041FF0028F9D00248FFF738FF10BD000088
:100400000024014000B587B00121480200F0BCF98A
:100410000121042000F0B8F94FF4004000F0A8F9E1
:1004200000208DF81B000320ADF818008DF81A008D
:1004300006A9164800F07CF80020019004904FF4C3
:100440006020039000208DF809008DF8080001203D
:100450008DF8140001A90E48FFF720FF01210C4878
:10046000FFF7EFFE0A48FFF79DFF00BF0848FFF7C0
:100470000AFF0128FAD00648FFF7A4FF00BF04488E
:10048000FFF7EAFE0128FAD007B000BD00080140DE
:100490000024014000BFFEE7704700B5034603E0BB
:1004A0004FF47A7000F005F8181EA3F10103F7D19C
:1004B00000BD00EBC001C9004FF0E02251610021F6
:1004C00091610521116100BF4FF0E021096901F43C
:1004D00080310029F8D004214FF0E02211617047EB
:1004E00010B54FF4804000F00FF8012808D10548FE
:1004F0000088401C034908804FF4804000F004F855
:1005000010BD000014000020014600200022074B0F
:100510001B6803EA0102054B14331B680B4013B13F
:100520000AB1012000E000207047000000040140F3
:100530002DE9F0410246002500260020002300247A
:10054000002791F803C00CF00F0591F803C00CF0E0
:10055000100CBCF1000F03D091F802C04CEA050565
:1005600091F800C0BCF1000F31D0146800202BE0DE
:100570004FF0010C0CFA00F3B1F800C00CEA0306CE
:100580009E4220D183004FF00F0C0CFA03F7BC43BE
:1005900005FA03FC4CEA040491F803C0BCF1280FEF
:1005A00006D14FF0010C0CFA00FCC2F814C00AE0AE
:1005B00091F803C0BCF1480F05D14FF0010C0CFAC3
:1005C00000FCC2F810C0401C0828D1D31460B1F858
:1005D00000C0BCF1FF0F34DD546800202EE000F1B4
:1005E000080C4FF0010808FA0CF3B1F800C00CEA4F
:1005F00003069E4221D183004FF00F0C0CFA03F743
:10060000BC4305FA03FC4CEA040491F803C0BCF1B6
:10061000280F05D100F1080C08FA0CF8C2F8148074
:1006200091F803C0BCF1480F07D100F1080C4FF05E
:10063000010808FA0CF8C2F81080401C0828CED334
:100640005460BDE8F0810246002093680B400BB176
:10065000012000E00020704700BFFEE710B5002435
:1006600004211348FFF7EFFF68B91420FFF715FFC7
:1006700000BF04210E48FFF7E6FF0028F9D0142040
:10068000FFF70BFF012408210948FFF7DCFF68B9D9
:100690001420FFF702FF00BF08210548FFF7D3FF32
:1006A0000028F9D01420FFF7F8FE0224204610BDE0
:1006B0000008014008B50121042000F065F8482039
:1006C0008DF803000C20ADF8000003208DF8020027
:1006D00069460248FFF72CFF08BD000000080140F2
:1006E00000BFFEE77047000070B5002100230F2215
:1006F000C47804B3154C246804F4E064C4F5E064E1
:10070000210AC1F10403CA40447804FA03F1847851
:100710001440214309010E4C0678A155047804F0D9
:100720001F050124AC4005786D11AD0005F1E025F1
:10073000C5F8004109E0047804F01F050124AC402D
:10074000044D0678761145F8264070BD0CED00E0AA
:1007500000E400E080E100E002490143024A116048
:10076000704700000000FA050CED00E07047000043
:1007700001460020034A506820F44040084350607E
:10078000704700000010024029B1064A92690243F6
:10079000044B9A6104E0034A92698243014B9A61D7
:1007A000704700000010024030B5002100220024F4
:1007B00000232D4D6D6805F00C0121B1042905D0F1
:1007C000082923D105E0294D056022E0274D056069
:1007D0001FE0254D6D6805F47012234D6D6805F41A
:1007E0008034022505EB92421CB9214D554305602A
:1007F0000BE01D4D6D6805F400351DB11C4D5543D2
:10080000056002E0194D5543056002E0174D056093
:1008100000BF00BF144D6D6805F0F0010909154DCA
:100820006B5C0568DD4045600F4D6D6805F4E06167
:10083000090A104D6B5C4568DD4085600A4D6D68A6
:1008400005F46051C90A0B4D6B5C4568DD40C5601D
:10085000054D6D6805F44041890B074D6B5CC5681B
:10086000B5FBF3F5056130BD0010024000127A00BF
:1008700000093D000000002010000020704710B566
:1008800000F002F810BD00000CB5002001900090AF
:100890003348006840F480303149086000BF304878
:1008A000006800F4003000900198401C019000980E
:1008B00018B90198B0F5A06FF1D12948006800F48B
:1008C000003010B10120009001E00020009000985D
:1008D000012843D12348006840F0100021490860F6
:1008E0000846006820F0030008600846006840F0F1
:1008F000020008601A484068194948600846406884
:1009000048600846406840F4806048600846406897
:1009100020F47C1048600846406840F4E8104860C5
:100920000846006840F08070086000BF0C4800680E
:1009300000F000700028F9D00948406820F003005A
:10094000074948600846406840F00200486000BF20
:100950000348406800F00C000828F9D10CBD0000E5
:1009600000100240002002407047000010B51348FC
:10097000006840F0010011490860084640681049CD
:1009800008400E494860084600680E4908400B4977
:1009900008600846006820F4802008600846406827
:1009A00020F4FE0048604FF41F008860FFF767FFE7
:1009B0004FF000600449086010BD000000100240C4
:1009C0000000FFF8FFFFF6FE08ED00E010B5012182
:1009D000880700F00AF8012803D10121800700F000
:1009E00001F810BDCA430282704730B502460020AC
:1009F00000230024158A05EA0103958905EA01040C
:100A000013B10CB1012000E0002030BD10B540F260
:100A10002551094800F031F801280CD1064800F0B2
:100A2000CBF80649087001200549087040F22551AD
:100A3000014800F007F810BD003801401600002002
:100A40001700002010B50022002340F66A14A142CE
:100A500000D100BF0A1201249440A3B2DC430480F9
:100A600010BD21B1828942F40052828104E0828962
:100A70004DF6FF731A408281704702460020B1F59F
:100A8000007F00D100BF13880B400BB1012000E0B4
:100A900000207047F0B50346002400260025002002
:100AA00040F66A17B94200D100BF1846C1F342149C
:100AB00001F01F06012707FA06F5012C01D10C30C1
:100AC00004E0022C01D1103000E014301AB10768A4
:100AD0002F43076002E00768AF430760F0BD0000E6
:100AE0002DE9F04786B005460E460024A24600BF19
:100AF000A1460027B08900B100BF2F462C8A4CF6D2
:100B0000FF700440F08804432C82AC894EF6F31049
:100B10000440B08831890843718908430443AC819B
:100B2000AC8A4FF6FF400440B0890443AC8201A870
:100B3000FFF73AFE1F48874202D1DDF810A001E01E
:100B4000DDF80CA0A88900F4004040B10AEBCA000F
:100B500000EB0A1031684900B0FBF1F807E00AEB3E
:100B6000CA0000EB0A1031688900B0FBF1F864207C
:100B7000B8FBF0F004012009642101FB1089A88969
:100B800000F4004040B1322000EBC900B0FBF1F0AE
:100B900000F00700044308E0322000EB0910642154
:100BA000B0FBF1F000F00F0004432C8106B0BDE86B
:100BB000F08700000038014001468888C0F3080033
:100BC0007047C1F308028280704700BFFEE7000053
:100BD00000F08AF8FFF716FCFFF76CFD7AE00020C2
:100BE000FFF7F6FB3C4908600846006840F6E44120
:100BF00088420FD938480068A0F6FA7048B9062034
:100C000000F0CEF80A20FFF748FC002000F0C8F8FA
:100C100000BF00BF3048006840F6B83188420ED2AD
:100C20002D4800680A2809D1082000F0B9F80A20E8
:100C3000FFF733FC002000F0B3F800BF00BF012035
:100C4000FFF7C6FB254908600846006840F6E44106
:100C500088420FD921480068A0F6FA7048B90720E9
:100C600000F09EF80A20FFF718FC002000F098F82A
:100C700000BF00BF1948006840F6B83188420ED264
:100C8000164800680A2809D1092000F089F80A20CE
:100C9000FFF703FC002000F083F800BF00BFFFF760
:100CA000DDFC0F49087008460078012812D10D4874
:100CB0000078401C0B490870087800EBD07149108F
:100CC000A0EB410119B9072000F06AF802E0042006
:100CD00000F066F883E70000180000201C000020E8
:100CE000200000202100002000B587B001218803EA
:100CF000FFF74AFD01210420FFF746FD18208DF87B
:100D00001B004FF40070ADF8180003208DF81A0096
:100D100006A92148FFF70CFC48208DF81B004FF472
:100D20008060ADF8180003208DF81A0006A91A4853
:100D3000FFF7FEFB4FF4165002900020ADF81400B0
:100D40000C20ADF812000020ADF81000ADF80E0038
:100D5000ADF80C0002A91148FFF7C2FE012240F2D3
:100D600025510E48FFF796FE4FF4A060FFF7F4FC04
:100D700025208DF8040001208DF807008DF805006E
:100D80008DF8060001A8FFF7AFFC01210348FFF72B
:100D900068FE07B000BD00000008014000380140B7
:100DA00010B5044621460548FFF70BFF00BF802120
:100DB0000248FFF762FE0028F9D010BD003801405C
:100DC000E00D0008000000202400000028010008B9
:100DD000040E0008240000206406000044010008FE
:100DE00000000000010203040102030406070809D1
:100DF00002040608000000000000000000000000DF
:040E000000000000EE
:04000005080000ED02
:00000001FF
