:020000040800F2
:10000000680600208901000871040008FF03000849
:100010006D040008430200080B09000800000000FE
:10002000000000000000000000000000F1040008D3
:10003000470200080000000073040008DD05000806
:10004000A3010008A3010008A3010008A301000800
:10005000A3010008A3010008A3010008A3010008F0
:10006000A3010008A3010008A3010008A3010008E0
:10007000A3010008A3010008A3010008A3010008D0
:10008000A3010008A3010008A3010008A3010008C0
:10009000A3010008A3010008A3010008A3010008B0
:1000A000A3010008A3010008A3010008A3010008A0
:1000B00041060008A3010008A3010008A3010008ED
:1000C000A3010008A3010008A3010008A301000880
:1000D000A301000891080008A3010008A30100087B
:1000E00091020008A3010008A301000800F002F833
:1000F00000F03AF80AA090E8000C82448344AAF188
:100100000107DA4501D100F02FF8AFF2090EBAE885
:100110000F0013F0010F18BFFB1A43F0010318473B
:10012000EC0A00000C0B0000103A24BF78C878C11C
:10013000FAD8520724BF30C830C144BF04680C60ED
:10014000704700000023002400250026103A28BF35
:1001500078C1FBD8520728BF30C148BF0B60704739
:100160001FB51FBD10B510BD00F031F81146FFF7E7
:10017000F7FF00F065FC00F04FF803B4FFF7F2FF63
:1001800003BC00F057F800000948804709480047C1
:10019000FEE7FEE7FEE7FEE7FEE7FEE7FEE7FEE737
:1001A000FEE7FEE704480549054A064B7047000094
:1001B000E1050008ED000008680000206806002046
:1001C000680200206802002070477047704775463B
:1001D00000F02CF8AE4605006946534620F00700B3
:1001E000854618B020B5FFF7DDFFBDE820404FF091
:1001F00000064FF000074FF000084FF0000B21F011
:100200000701AC46ACE8C009ACE8C009ACE8C009DD
:10021000ACE8C0098D46704710B50446AFF30080C6
:100220002046BDE81040FFF7A8BF00000048704717
:100230000400002001491820ABBEFEE726000200A2
:10024000704700BFFEE7704700B5034603E04FF478
:100250007A7000F005F8181EA3F10103F7D100BD74
:1002600000EBC001C9004FF0E02251610021916113
:100270000521116100BF4FF0E021096901F48031CF
:100280000029F8D004214FF0E022116170470000EE
:1002900010B54FF4804000F00FF8012808D1054850
:1002A0000088401C034908804FF4804000F004F8A7
:1002B00010BD000000000020014600200022074B76
:1002C0001B6803EA0102054B14331B680B4013B192
:1002D0000AB1012000E00020704700000004014046
:1002E0002DE9F041024600250026002000230024CD
:1002F000002791F803C00CF00F0591F803C00CF033
:10030000100CBCF1000F03D091F802C04CEA0505B7
:1003100091F800C0BCF1000F31D0146800202BE030
:100320004FF0010C0CFA00F3B1F800C00CEA030620
:100330009E4220D183004FF00F0C0CFA03F7BC4310
:1003400005FA03FC4CEA040491F803C0BCF1280F41
:1003500006D14FF0010C0CFA00FCC2F814C00AE000
:1003600091F803C0BCF1480F05D14FF0010C0CFA15
:1003700000FCC2F810C0401C0828D1D31460B1F8AA
:1003800000C0BCF1FF0F34DD546800202EE000F106
:10039000080C4FF0010808FA0CF3B1F800C00CEAA1
:1003A00003069E4221D183004FF00F0C0CFA03F795
:1003B000BC4305FA03FC4CEA040491F803C0BCF109
:1003C000280F05D100F1080C08FA0CF8C2F81480C7
:1003D00091F803C0BCF1480F07D100F1080C4FF0B1
:1003E000010808FA0CF8C2F81080401C0828CED387
:1003F0005460BDE8F081416170470161704700BF02
:10040000FEE7000008B50121102000F043F8482065
:100410008DF803004FF4C040ADF8000003208DF8C4
:10042000020069460148FFF75BFF08BD001001406C
:1004300010B5A0210A4800F0D4F9A521084800F021
:10044000D2F901200749086000200749C1F8AC0132
:1004500004490831086001200349C1F8B40110BD06
:1004600000040040A88121420080214200BFFEE735
:100470007047704729B1064AD2690243044BDA61DA
:1004800004E0034AD2698243014BDA6170470000FD
:100490000010024029B1064A92690243044B9A6156
:1004A00004E0034A92698243014B9A61704700005D
:1004B0000010024010B5A0210A4800F092F9A521D1
:1004C000084800F090F9002007490860012007491A
:1004D000C1F8AC0104490831086000200349C1F8A3
:1004E000B40110BD00040040A881214200802142D7
:1004F000704710B500F002F810BD00000CB50020E8
:10050000019000903348006840F480303149086021
:1005100000BF3048006800F4003000900198401C93
:100520000190009818B90198B0F5A06FF1D1294851
:10053000006800F4003010B10120009001E00020BC
:1005400000900098012843D12348006840F0100033
:10055000214908600846006820F00300086008464A
:10056000006840F0020008601A4840681949486075
:100570000846406848600846406840F4806048602B
:100580000846406820F47C1048600846406840F403
:10059000E81048600846006840F08070086000BFBE
:1005A0000C48006800F000700028F9D00948406845
:1005B00020F00300074948600846406840F0020008
:1005C000486000BF0348406800F00C000828F9D1DB
:1005D0000CBD0000001002400020024070470000E7
:1005E00010B51348006840F0010011490860084642
:1005F0004068104908400E494860084600680E49A6
:1006000008400B4908600846006820F48020086014
:100610000846406820F4FE0048604FF41F008860E0
:10062000FFF767FF4FF000600449086010BD00004D
:10063000001002400000FFF8FFFFF6FE08ED00E0AA
:1006400010B50121880700F016F8012803D1012117
:10065000800700F001F810BDCA430282704721B143
:10066000028842F00102028004E002884FF6FE7325
:100670001A400280704730B5024600200023002453
:10068000158A05EA0103958905EA010413B10CB145
:10069000012000E0002030BD70B5002400220023BE
:1006A000058C4FF6FF6635400584028C8388848B69
:1006B0004FF68F752C404FF6FC752C400D882C435F
:1006C0004FF6FF552A400D894FF6FF7606EA0525BD
:1006D0002A434D8806EA05252A43154DA84202D033
:1006E000144DA8421DD14FF2FF752A404D894FF697
:1006F000FF7606EA05252A434FF6FF352A408D8806
:1007000006EA05252A434EF6FF752B404DF6FF7588
:100710002B408D8906EA05152B43CD8906EA051580
:100720002B4383808483CD888587028470BD00003D
:10073000002C0140003401400A460021818B4FF615
:10074000F7731940114381837047000070B5002290
:1007500000230024058C4EF6FF7635400584038C7B
:100760008488828B48F6FF752A404FF6FF452A4061
:100770000D884FF6FF7606EA05252A434DF6FF75EC
:100780002B400D8906EA05352B434D8806EA0535D1
:100790002B430B4DA84202D00A4DA84208D14BF67C
:1007A000FF752C408D894FF6FF7606EA85152C43A0
:1007B00084808283CD88A0F84050038470BD0000FF
:1007C000002C0140003401400A460021818B4FF289
:1007D000FF7319404FF6FF7303EA02231943818325
:1007E000704781877047A0F8401070470022028848
:1007F0001D4B98420ED01D4B98420BD0B0F1804F4C
:1008000008D01B4B984205D01A4B984202D01A4B85
:10081000984204D14FF68F731A404B881A43174BF6
:10082000984207D0164B984204D04FF6FF431A4027
:10083000CB881A4302808B8883850B8803850A4BFB
:1008400098420BD0094B984208D00E4B984205D0E5
:100850000D4B984202D00D4B984201D10B7A038682
:100860000123838270470000002C014000340140C6
:100870000004004000080040000C00400010004050
:100880000014004000400140004401400048014085
:1008900010B540F22551094800F025F801280CD187
:1008A000064800F02DF80649087001200549087037
:1008B00040F22551014800F007F810BD0038014012
:1008C000020000200300002010B50022002340F6A3
:1008D0006A14A14200D100BF0A1201249440A3B2BD
:1008E000DC43048010BD02460020B1F5007F00D13A
:1008F00000BF13880B400BB1012000E000207047BF
:1009000001468888C0F30800704700BFFEE700007A
:1009100010B500F00BF900F011F901E000F02EF92C
:1009200046480068012809D14448001F0068012892
:1009300004D14248083800680128EFD03F480068D9
:1009400070B93E48001F006850B93C48083800683C
:10095000012805D1FFF7AEFD4FF42F70FFF774FCAF
:100960003648006878B93548001F006801280AD168
:10097000324808380068012805D1FFF79BFD4FF485
:100980002F70FFF761FC2D48006801280DD12B481E
:10099000001F006848B929480838006828B9FFF7DF
:1009A00047FD4FF42F70FFF74FFC244800680128E3
:1009B0000ED12248001F0068012809D11F480838BD
:1009C000006828B9FFF734FD4FF42F70FFF73CFCA7
:1009D0001A480068012810D11848001F006860B943
:1009E000164808380068012807D1FFF763FD4FF467
:1009F0002F70FFF729FC00F0C1F801E000F0DEF8ED
:100A00000E48006840B90D48001F006820B90B4827
:100A1000083800680028F1D001E000F0AFF807487E
:100A2000006848B90548001F0068012804D1034840
:100A3000083800680028F0D010BD000030012242C4
:100A400000F00CF800F0CCF800F024F8FFF7DAFC26
:100A500000F07EF801E0FFF75BFFFCE708B501213D
:100A60000820FFF717FD4FF47050ADF8000010207C
:100A70008DF8030003208DF8020069460448FFF753
:100A80002FFC4FF470510248FFF7B5FC08BD000081
:100A9000000C014000B589B001210220FFF7EAFCFB
:100AA00001210820FFF7F6FC0320ADF820001820F4
:100AB0008DF8230003208DF8220008A91948FFF7BC
:100AC0000FFCC720ADF818002320ADF8140000205B
:100AD000ADF81A00ADF8160005A91348FFF786FE19
:100AE0006020ADF804000120ADF806000020ADF84C
:100AF0000C00ADF80A0001A90B48FFF7CDFD01A9D4
:100B00000948FFF723FE08210748FFF715FE0821D3
:100B10000548FFF759FE01210348FFF7A0FD09B082
:100B200000BD0000000C01400004004010B5802111
:100B30000148FFF762FC10BD000C014010B54FF4F6
:100B400080710248FFF759FC10BD0000000C014005
:100B500008B501210820FFF79DFC4FF4C070ADF8E7
:100B6000000010208DF8030003208DF80200694674
:100B70000148FFF7B5FB08BD000C014010B5A021EE
:100B80000B48FFF72EFEA5210948FFF72CFE012098
:100B90000849086000200849C1F8AC010120054956
:100BA0000831086000200449C1F8B40110BD0000FC
:100BB00000040040A8812142008021420020064913
:100BC00008600649C1F8AC010349083108600349CF
:100BD000C1F8B40170470000A88121420080214281
:100BE00008B501211020FFF755FC4FF4E050ADF897
:100BF000000004208DF8030003208DF802006946F0
:100C00000148FFF76DFB08BD001001402C0C0008E7
:100C1000000000200400000028010008300C00083B
:100C200004000020640600004401000800000000E9
:04000005080000ED02
:00000001FF
