:10044C00766F696365206F6E650D0A00760D0A0084
:1003EB0075985053890F438920AB07AA06E4F9F897
:1003FB007F807E70FDFC120375EFF404F58D858D07
:08040B008BC2ABD2ACD28E22F1
:080473008F993099FDC2992216
:1004280012022DFF600C120473740129F9E43AFAE0
:0304380080EE2231
:0B046800EF1FAC0670011E4C70F62266
:05047B00007F50DFFED0
:010480002259
:100322007508037509E8E4F50AF50BAC08AD09E4B4
:100332001201AA7BCD7ACC79CC783D120026C0047A
:10034200C005C006C007AC0AAD0BE41201AAA8049E
:10035200A905AA06AB07D007D006D005D004120122
:100362002C500FB2A512047B050BE50B70BD050ADC
:0203720080B950
:010374002266
:100003007B077A00C2A5EB1BAE0270011A4E600B90
:0B001300B2A57FE87E0312046880EBBA
:01001E0022BF
:1003B90020B11530B1FD7F0A7E00120468120322B4
:1003C9007BFF7A04794C801620B01630B0FD7F0A85
:1003D9007E001204681200037BFF7A047958120424
:0203E9002822C8
:100413007FE87E03120468D2AF7F807E251203EB50
:050423001203B980FB8B
:0300230002043B99
:10043B00309808C29885990C850C99309902C2990D
:01044B00327E
:10002600EC4D6011E8497017ED33EC3304600DE4D4
:10003600FCFFFEFD22E933E8330470F802021812D1
:1000460001E358046009E4CC2481500628500902D3
:10005600022228400302021FC0E0EB4A7044B98026
:1000660006D0E0FB02020EEF4E701CBD8008EBFFCF
:10007600EAFEE9FD80EBE98DF0A4FEE5F002010F52
:10008600E9CDF9EAFEEBFFEF89F0A4FCE5F0CE89B5
:10009600F0A42EFFE435F0CD89F0A42DFEE435F072
:1000A6008067EF4E7005BD80D780C3EF8BF0A4ACA0
:1000B600F0EE8BF0A42CFCE435F0F8EF8AF0A42CDB
:1000C600E5F038FCE433CB8DF0A42CFCE5F03BF8EE
:1000D600EE8AF0A42CFCE5F038F8E433CF89F0A4DE
:1000E6002CFCE5F038CF3400CE89F0A42FFFE5F0E4
:1000F6003EFEE433C98DF0A42EFEE5F039CD8AF03C
:10010600A42FFFE5F03EFEE43DFD33D0E0FB5007B3
:100116000BBB000F020222EC2CFCEF33FFEE33FE8A
:06012600ED33FD0201FAB9
:10012C0074F8CC6480CCC86480C8F58204604FC37A
:10013C00EB9FF5F0EA9E42F0E99D42F0E89C45F019
:10014C00603C501DE5825FFFE582D313CB5BCBF4A3
:10015C002B5582FB50280ABA002409B900200880CC
:10016C001DE5825BFBE582D313CF5FCFF4C3132F66
:10017C005582FF50090EBE00050DBD00010CC3EBEE
:10018C009FF5F0EA9E42F0E99D42F0E89C45F06054
:09019C0007CC4820E701B3EC2276
:1001A50075F020800E75F010800575F0087D007ED5
:1001B500007F003392D530D503120246EC33401050
:1001C500EF33FFEE33FEED33FDEC33FCD5F0ED22DE
:0E01D500E5F0247EA2D513CC92E7CDCEFF221A
:1001E300E9D2E7C933E833F892D5EDD2E7CD33EC62
:0701F30033FC5002B2D522DB
:1001FA00EC30E7100FBF000C0EBE00080DBD000466
:10020A000BEB6014A2D5EB13FCED92E7FD2274FF11
:10021A00FCFDFEFF22E480F8A2D574FF13FC7D806A
:03022A00E480EF7E
:0300000002045C9B
:0C045C00787FE4F6D8FD75810D020413D2
:10022D00BB010689828A83E0225002E722BBFE02CF
:09023D00E32289828A83E4932202
:10037500C2D5E830E70FB2D5E4C39BFBE49AFAE4B3
:1003850099F9E498F8EC30E717B2D51203AB1202ED
:1003950090E4C39BFBE49AFAE499F9E498F88003A6
:1003A50012029030D50DE4C39FFFE49EFEE49DFD4F
:0403B500E49CFC22A6
:0E024600C3E49FFFE49EFEE49DFDE49CFC22C9
:1002540075F008758200EF2FFFEE33FECD33CDCC61
:1002640033CCC58233C5829BED9AEC99E5829840E4
:100274000CF582EE9BFEED9AFDEC99FC0FD5F0D6C1
:10028400E4CEFBE4CDFAE4CCF9A88222B800C1B9EB
:100294000059BA002DEC8BF084CFCECDFCE5F0CB29
:1002A400F97818EF2FFFEE33FEED33FDEC33FCEB62
:1002B40033FB10D703994004EB99FB0FD8E5E4F91D
:1002C400FA227818EF2FFFEE33FEED33FDEC33FC0A
:1002D400C933C910D7059BE99A4007EC9BFCE99AFE
:1002E400F90FD8E0E4C9FAE4CCFB2275F010EF2F43
:1002F400FFEE33FEED33FDCC33CCC833C810D70743
:100304009BEC9AE899400AED9BFDEC9AFCE899F87D
:0E0314000FD5F0DAE4CDFBE4CCFAE4C8F92210
:00000001FF
